:020000041000EA
:4000000000400208230100100D00000085010010000000000000000000000000000000000000000000000000000000008101001000000000000000008101001081010010E9
:400040008101001081010010810100108101001081010010810100108101001081010010810100108101001081010010810100108101001081010010810100108101001060
:400080008101001081010010810100108101001081010010810100108101001081010010810100108101001081010010810100108101001081010010810100108101001020
:4000C00010B5064C2378002B07D1054B002B02D0044800E000BF0123237010BD1415000800000000A4730010084B10B5002B03D00749084800E000BF07480368002B00D12C
:4001000010BD064B002BFBD09847F9E70000000018150008A473001050020008000000007047FFF7FDFF72B60F4C104DAC4209DA21686268A368043B02DBC858D050FAE741
:400140000C34F3E70A490B4A0020521A02DD043A8850FCDC084809490860BFF34F8F00F00BF900F01DF8FEE710C6011028C6011014150008682200080000000808ED00E066
:40018000FEE7FEE700B504207146084202D0EFF3098001E0EFF30880043002F0F5FCFEE710B562B6002003F0DFFC034800F06AF907F0DCF9FCE7C0460000081010B50020FC
:4001C00001F0D6F910BDC04670B56249E0239B00CB580F2213401A00D0329200525807210A40032A05D0042A06D0002A12D15A4814E05A4A106811E01A00C032920055499B
:4002000052581F210A40112A06D0132A04D0FA20C00103E0524801E080200002002B36D14C4BB222D2009A5801211140B125ED005A59120F032422405B591B0F1C4207D086
:40024000444C63591B0F03242340012B02D102E0012300E00023002B01D0002901D1032A4BD13C4BB022D2009D58AD03AD0B3D495958C904C90C9C58240E01231C400134FA
:4002800003F088FC6843210003F084FC35E0012B33D1304BC822D2009A5801251540C024E4001A59120F03210A401B591B0F194207D028490B591B0F03210B40012B02D198
:4002C00002E0012300E00023002B01D0002D01D1032A12D11F4DC022D200AB587F210B40A958090A1F263140AC58240C3440584303F050FC210003F04DFCE0239B00154A36
:40030000D3581B0903221340D840144C6060164B1D692D0AFC32154001351969090E013103F038FCA060290003F034FC0500E06020610E4BC0180E4903F02CFC20750D4B53
:40034000E818FA21890003F025FCA061C003E06170BDC0460000264000127A00C000000800366E0184050000000021403F420F0040420F00E703000010B5284802F040FDD5
:40038000274CB022D200A3585B005B08A350E0218900635830208343635080235B04A350204A214BE250A02292010433E250FF221E4BE25001F0EAFBC0225200A3580121CE
:4003C0008B43A35000F054FBFFF7FEFEB0235B055B78002B04D0B0235B055B78DBB200E02123212B03D1124B0022DA605A60114C22008021042000F003FE2000103000F037
:40040000DDFE0D4B1A685123D35C002B02D00B4800F04AFF01F080FC10BDC046C46600100000264001000200840500008C050000E00023403015000864220008F856001062
:400440008023024AD3580320184070470000214010B502F02AFC084980228C58074B2340074C23438B508823034AD358DB06FAD502F01FFC10BDC04600002140FCFF0000C3
:400480000100FA0570B50500830504D0E821FF310F4802F043FB02F008FC0400FFF7D0FF032801D1FFF7D4FF0A4AB0239B00D55080215058084B03400848034353508823C7
:4004C000044AD358DB06FAD5200002F0F2FB70BD2C57001000002140FCFF00000300FA05FEE7C046F0B50025002711E0BB00C658F3B2FF22964308E06A008A181478A41934
:40050000527822700135013BDBB2002BF4D10137022FEBD9F0BDC0460323064A1360064A136080225201054B1A60054A054B1A607047C04608203140102031409402364009
:4005400001001180000E1F4110B50A00002105F0A1F810BD10B505F094F810BD30B587B04A4A116808230B431360494C03E0012002F0C8FA013C454B1B695B0701D4002C07
:40058000F5D1002C01D1434B00E00023002B02D00520FFF7A5FF4048A021C900435803229343023A134343503C4A116808688823CB58C31818683A49084018601368186887
:4005C00084241B59C01803681B021B0A80256D042B430360106805680359EB1818680140196013683E229A5C002A06D02A48E02189004258753CA24342503E229A5C002AE6
:4006000006D02548E021890042583024A24342503E229B5C002B07D01F49E02292008B588020000603438B500021012001F004F80021022001F000F80021032000F0FCFFFF
:400640000021042000F0F8FF0021002000F0F4FF01A8144903000A0032CA32C312CA12C301F03EF8002802D00420FFF739FF0A490D4A8B588020000603438B500B4801F06A
:40068000EBF8002814D00420FFF72AFF0000274020A1070002004A000000264064220008FF00FFFF4C570010087F0000400D0300D94CDA4BE158DA4A0A40E250E158D94A93
:4006C0000A40E250E25880252D062A43E250043BE158D54A0A40E250E158D44A0A40802189010A43E250E258802109020A43E250CF4A1168CF4B0B401360002002F048FB4B
:40070000CD4BE2582A43E250E158012291430A43E2506421002002F04FFAC84B1B683F229A5C022A06D970229A5C02210A40C449986842509A6874215B5AD2189168C14B72
:400740000B40A021C9000B439360BC4B1B6873229A5C0321914070229A5C7220185C140084402143022002400A43802109060A438021C900986842509A6852583F229A5CE2
:40078000032A06D970229A5C01210A40AE49986842509A6874215B5AD2185168A94B0B40C02189000B435360A44B1B6873229A5C0321914070229A5C7220185C14008440BF
:4007C0002143012002400A43802109060A438021C900986842509A6852583F229A5C052A06D970229A5C04210A409849986842509A6874215B5AD2181169924B0B408C21EC
:4008000089010B4313618D4B1B6873229A5C0321914070229A5C7220185C140084402143042002400A43802109060A438021C900986842509A6852583F229A5C132A0AD9F8
:400840007122985C703A82401100032282400A407F49986842509A6876215B5AD21811687C4B0B407C490B431360744B1B6873229A5C0324210091400A007021585C023138
:40088000595C8840104371229A5C01219140944022000A400243802109060A438021C900986842509A6852583F229A5C142A07D970229A5C03210A40C521090198684250D5
:4008C0009A6874215B5AD218D1685E4B0B40B02109010B43D360594B1B6873229A5C03200400944070229A5C7221595C15008D402900214302400A43802109060A43802120
:40090000C900986842509A6852583F229A5C152A06D970229A5C05210A405049986842509A6874215B5AD2185169464B0B40C42189010B435361414B1B6873229A5C03211D
:40094000914070229A5C7220185C140084402143052002400A43802109060A438021C900986842509A6852583F229A5C162A06D970229A5C03210A403949986842503F22A2
:400980009A5C172A06D970229A5C05210A403549986842503F229A5C1C2A07D970229A5C03210A40C7210901986842503F229A5C252A06D970229A5C03210A402A49986834
:4009C00042503F229A5C332A03D90021274A986881509A6874215B5AD2181168194B0B40FE2109020B431360144B1A687323D15C703B8B4019007023D35C7220105C834073
:400A00000B43802109060B438021C9009068435093685B5807B030BD0000264004050000FEFCFFFFFFFF00FFFFF0FFFFFF8FFFFF00002740FFFCFFFF0C0500006422000847
:400A4000080C0000FF00FFFF0C0C0000140C00004C0C0000FF0000FF004FC300540C0000580C00005C0C0000940C0000CC0C000070B58EB09621002002F09EF802F074F801
:400A8000002814D102F060F8C0235B00824AD358DB0705D41100814A8B585B005B088B507D497E4A8B588020000603438B50012001F0C0FF7A4A516C7A4B0B40E82189016A
:400AC0000B435364536C1B0AFF2213403A2B07D1734A516C744B0B40E82189010B435364002300227149724802F0E6F8002300227049714802F0E0F83422002101A804F022
:400B0000C9FD6E4C01AA0021200001F011FA3422002101A804F0BEFD01AA0121200001F007FAFFF71BFD664A664B1A6000240CE0620012195300644AD318198B9A8AD88A03
:400B400000041043FFF700FD01340B2CF0D900240AE06200121993005B4AD3185A6E196ED86DFFF7F7FC0134112CF2D9574D2900343128005430FFF7B5FC0F22544B1A60AF
:400B8000544B55490B6055490A60554A1360554B554A1360554A1360554A1368832149000B43136001AC22002B00603323CB23C223CB23C223CB23C22100404801F052FBFA
:400BC0004C4D22002B1D43CB43C243CB43C243CB43C22100484801F045FB22002B00283343CB43C243CB43C243CB43C22100434801F038FB22002B004C3343CB43C243CB39
:400C000043C243CB43C221003D4801F02BFB24220021200004F03EFD862301932100394801F020FB22002B00703323CB23C223CB23C223CB23C22100334801F013FB334DBA
:400C400022002B00143343CB43C243CB43C243CB43C221002E4801F005FB22002B00383343CB43C243CB43C243CB43C22100294801F0F8FA22002B005C3323CB23C223CB1C
:400C800023C223CB23C22100234801F0EBFAFFF743FC0EB070BDC046000026400C05000000002740FF00FFFFFFC5FFDF0E0E0040110E00000003004029030000000032401B
:400CC0000300FA05F00121404C5700104C580010000063400701010000026340000064400002644010200200A00339406001394000793440CC58001080003240800232406F
:400D00000003324080033240000432404C59001080043240800532408006324070B505000C001A4B1B6828229A5C012A15D1820807211000884327D19200AD1AED00FF20E0
:400D4000A8401B6820339A181168AC4023004B40184004004C40146016E03A229B5EDBB2994203D176210A4801F0D8FE074B1B681B68072215408022120615438022920140
:400D800094466444A400E55070BDC04664220008FC62001070B504000D000B4B9A680B4B9A420CD1002904D13821FF31084801F0B5FE1034054BA400E058E55003E01034C5
:400DC000A400044BE05870BD00ED00E000000008FC62001000000010F0B5474680B482B0061E01914AD04368032B03D93221264801F094FE0023F05E002804DBB178FFF750
:400E00008DFF002400E0214C0023F15E7368002912DB88081E4FC0308000C55903221140C900FC3290468A4095439A01434613408B402B43C35116E089B20F220A40083A30
:400E400092080632920013481018476803221140C900FF252A008A4097439A012B0013408B403B4343600B4B9A680B4B9A4206D10023F05E0199FFF78DFF00E0034C200069
:400E800002B004BC9046F0BDFC6200100100560000E100E000ED00E00000000870B504000D000A4B1A68B423D3581B181B68002B0ADA0B0C03D00649064801F02FFE2D0438
:400EC0002D0C6560002000E0034870BD64220008D50200004063001001008A0070B505000C000368002B01DA002300E0084B002B0BD1EA60230C03D00649074801F00EFEEE
:400F00002404240CAC60002000E0014870BDC04601008A00BB0200004063001070B505000C1E03D19921084801F0F8FD074B1A68B423D3585B191B68002B03DAEB68236013
:400F4000002000E0024870BD806300106422000801008A0070B504000D00234B1A683123D35C834236D9002936D00B68DB0635D13123D35C984204D3C421FF311B4801F04B
:400F8000CDFD194B1B681A6AB0215B5A5C431419174E34602B68DA080021686804F07AFB00212000FFF77AFF3468002D03D111490E4801F0B3FD2A0000212000FFF78EFF56
:400FC00000280DD10A4B18680021FFF767FF002808D108E0084806E0074804E0064802E0064800E0054870BD6422000840630010C01600089303000003018A0001018A00A0
:4010000010B50400002A17D1002915D1124B1A683123D35C984204D3C421FF310F4801F07DFD0D4B1B681A6AB0215B5A5C4314190B4B1C6000200EE0002A09D0002909D046
:40104000074B59609A60191D2000FFF783FF02E0044800E0034810BD6422000840630010C016000803018A00F0B583B00D001C4B1B68DC68236883422DD947097B01C01ABB
:40108000012383401E00002903D101F00EFE019001E000230193124B18680368002B01DA002300E00F4B002B0ED16368BF00DF193B68334203D133433B60002400E00A4C7A
:4010C0000021FFF7EBFE00E0084C002D04D1019801F0EFFD00E0064C200003B0F0BDC046C016000801008A00020188000301880004018A00F0B583B00D001C4B1B68DC686A
:40110000236883422DD947097B01C01A012383401E00002903D101F0C8FD019001E000230193124B18680368002B01DA002300E00F4B002B0ED16368BF00DF193B68334283
:4011400003D0B3433B60002400E00A4C0021FFF7A5FE00E0084C002D04D1019801F0A9FD00E0064C200003B0F0BDC046C016000801008A00020188000301880004018A00CA
:401180000A4B1B68DA68136883420BD943095901401A0121814052689B009B580B4203D0034802E0034800E003487047C01600080101880004018A0000018800034B1B68FB
:4011C000002B01D1014B18607047C046CC160008F0B5474680B404000F0090461E002D4B1B68002B03D1B5212B4801F097FC294B1B682C2060431C18FF2215003540256009
:40120000330A13406360360CA660244B1A683123D35C9D4204D3C421FF31214801F07EFC1E4B1A68B023D35A6B43116A8C466344236166683223D35C9E4204D3E021FF31B5
:40124000174801F06BFC154B1B681D6A80367601AD196561A668330C04D0FF214900104801F05CFC330C03D00E490D4801F056FC3604330C1E43AE604346E3612762002307
:40128000A361069B002B02D000229B5EA38104BC9046F0BDCC160008C06300106422000840630010FF010000F0B58FB0041E03D15221294801F032FC6368032B03D9542185
:4012C000254801F02BFCE36A002B03D15821224801F024FC236B002B03D159211E4801F01DFC07AA1300210061C961C321C921C302AD290023001433C1CBC1C141CB41C153
:401300000821535E0CAE3380144B1B6836215B5E07998C466344B370089B0D930B9B0A980096A26AE16AFFF753FF2B69E868002200920021FFF74CFF216B3000FFF74CFD83
:401340000023F25E002A05DB1F231A401E3B9340034A13600FB0F0BDC06300106422000800E100E0F8B505000F0016001C00002A03D1FD21224801F0D1FB224B1B68002B29
:4013800003D1FE211E4801F0C9FB1E4B1B682C2128004843181879435918012213004D68AB401B044568AA4015000269002A20D08F69002F1FD11268002A01DA002200E018
:4013C000114A002A19D132681204120C134333600369DE6001238B614C6204692B0C03D00A490B4801F09AFB2A04120CA260002004E0084802E0084800E00748F8BDC046FE
:40140000C0630010CC16000801008A00BB0200004063001004028A0007028A0070B504000D0016000F4B1B68002B04D1AF2149000D4801F073FB0B4B1B682C2060431C187F
:40144000236A002B04D1B1214900074801F066FBE369B34204D9236AB6009D51002000E0024870BDCC160008C06300100A028A0070B505000C00084B1B68002B04D1C821B5
:401480004900064801F04AFB034B1B682C2068431818846270BDC046CC160008C063001070B582B0040000230193002804D1D221FF312D4801F032FB2369002B04D1E921D6
:4014C0004900294801F02AFB6369002B04D1D421FF31254801F022FB236A002B04D1EA214900214801F01AFB6269D5682B0C24D01B041360136820691C4B1A68B423D358AC
:40150000C3181B68002B18DA01A9FFF707FD00280ED1019803681E0CFF221340E269934207D29B00226AD358002B02D0984700E0002631002069FFF7B1FC2D042D0C0FD010
:4015400063691D601B68636A002B03D098470023636203E0A36A002B00D098470023A36163691B6802B070BDC06300106422000810B50400084B1B68002B04D1B221FF318B
:40158000064801F0CBFA044B1B682C2060431818FFF786FF10BDC046CC160008C063001010B504000E4B1B68002B03D10D490E4801F0B4FA0A4B1B682C20604318180C23B6
:4015C000C25E002A0ADB1F231A401E3B9340802206498B50BFF34F8FBFF36F8F002010BDCC1600082B020000C063001000E100E010B504000C4B1B68002B03D10B490C48A6
:4016000001F08CFA084B1B682C20604318180C23C25E002A05DB1F231A401E3B9340054A1360002010BDC046CC1600084B020000C063001000E100E0134B1A683C23D35CCF
:4016400083421DD9042904D94B1EFF3B9BB2132B18D8FF290CD91F2319400C4A0300C0339B009950D03080000423835000200AE007231940D0308000044BC150002002E026
:40168000034800E002487047642200080000264001004A0010B504000E4B1A683C23D35C834204D8A12149000B4801F037FA2300D0339B00094A985807231840042807D1E2
:4016C000C034A400A3581B30184080235B00184310BDC04664220008006400100000264070B5041E03D14A494A4801F017FAB023DB00494AD358002B00DA87E0474B2268EA
:401700009A4203D94649434801F008FA23689B039B0BE279002A02D08022520400E000221343B022D2003C498B50A2883D4B9A4204D98C218900374801F0F0F922893A4B40
:401740009A4203D93949334801F0E8F9A388DB04D90C23891B04364A13400B43354A2E498B50A37A0F2B04D98E218900294801F0D5F9E37A0F2B03D92F49264801F0CEF989
:40178000A289284B9A4203D92C49224801F0C6F9A37A0F211940E27A1201FF2313400B43A289120226490A401343A27B1207C02189050A401343B122D20017498B50A379DD
:4017C000042B03D91F49134801F0A8F9228A164B9A4204D9912189000E4801F09FF90E4819494558194B1D40A3791B02E022D20013402B4343504558154B1D40238A1B040C
:401800000B4A13402B434350002000E0114870BD1F0200000064001000002640FFFF030029020000FF1F0000FF010000310200000000FF0184050000390200003A02000001
:4018400000FF1F00430200008C050000FFF8FFFFFFFF00FE03004A0070B505003149324A8B588020000603438B502C0003E0012001F048F9013CB223DB002A4AD3585B071C
:4018800001D4002CF3D12749B122D2008858274B03408020800503438B50002D01D0002C0CD02049B022D2008B588020000603438B5003E0012001F025F9013CB223DB00B6
:4018C000184AD358DB0701D4002CF3D1002D01D0002C08D01349B122D2008B58C020800503438B5013E00F4BB121C90058580F4A02408020800502435A5008395A585200BC
:4019000052085A5008495A58520052085A50002D03D0002C03D0002002E0002000E0044870BDC046000026408C050000FFFFFFCF02004A00F0B5564CA04200D9A2E0A24253
:4019400000D9A1E0534B994200D99FE00124524B1C70FF2805D80F2505400E340F26072321E04E4B984205D80F2303400F240026002518E0040A0F2323401D00484B984267
:4019800008D80001FF2318402B000343FF240026002508E00402F020000120402B000343404C00260025FF2A0DD81201FF2002401543E020C0021843F0231E43F0231B03AA
:4019C00023439C4625E03548824207D81004F022120310401843224394461AE0100A0004F0273F03384018432D4B9A4209D81205F0231B0413401843FF231B0423439C465C
:401A000007E01206F0231B051A401043264B23439C46264B1A68176AB023D45AE200131BFB181B68002BF4DA1B4B5B78002B04D01F4B204AD358002B18DA1F4A1F4B1A6059
:401A40001F4A204B1A601B4AA324E4001359B3431D4315511C4C13596546AB43184310510D4B5960124BD150002000E017480F4B1A68146AB023D15ACA00531AE31800221D
:401A80005A6004E0114802E0104800E00F48F0BD0F060000FFFFFF00D0160008FF040000FF0500000F0F000000000F0F642200081C050000000026401F1F0000080126400C
:401AC0003D3D0000040126401405000001004A0070B50022264B1A70264B1C68226AB023E55AEC00631BD3181C68002CF4DA224A1468224A944206D1214A1468214A9442CC
:401B000003D0002502E0002500E00125A422D2001D4CA4582402240A00225A60002D24D0002C23D000280FD1114B58680A000023002102F0C5F96208002380185941220030
:401B400002F09EF9040011E00A0000232000002102F0B6F9064B5A685408002500196941002302F08DF9040000E00024200070BDD016000864220008080126401F1F000068
:401B8000040126403D3D0000000026400749C02252008B589B009B088020C00503438B508B588020000603438B50704700002640C00543425841C0B27047C046214B984290
:401BC00030D00ED8402831D004D800281FD010282AD031E080282BD080235B00984229D02AE0194B984229D007D8A0231B0698420DD0164B984212D01EE0154B98420AD002
:401C0000144B984209D0144B984215D101E0002016E0124814E0124812E0124810E0A020C0030DE007480BE00F4809E00F4807E00F4805E0034803E00E4801E0A420C00348
:401C40007047C04606005200010000F0090000A0040000F0050000F0030000F0010052000200520003005200010050000200500005005200FF00520070B5124B1A6831233A
:401C8000D35C002B04D1C421FF310F4800F046FF0C4B1D682C00B423EB582A6A944663441B68002B0BDB094B1868FFF787FF6B6801229A6063689B68002BFBD100E0044858
:401CC00070BDC0466422000888640010DC1600080200500010B50D4B1861002805D002230370FD33437000234380094B1B6850229A5C002A08D051229B5C002B04D04F3AB4
:401D000004490020FFF78AFB10BDC046DC16000864220008C902000810B502481430FFF7D9FF10BDDC16000870B504000D00FFF73FFF002836D0002D36D0FEF745FA1B4B40
:401D40001B4A1A6000225A609C60DD60194B1B6852329A5C002A1FD01A6884215B58D31819681A68120AFF2313405A1C0B0E01335343114C5C43114B1868FA21890001F0D6
:401D800009FF0100200001F005FF0D4BC1188020400003F0A9FC08E000218020400003F0A3FC02E0074800E0064870BDDC1600080001000564220008C0EA2101C40000082F
:401DC000482600000600520010B5FFF755FF10BD10B50400FFF7ECFE00283ED0FEF7F4F9E02252051E4B1A601E4B1B78002B05D01B4A1368802149000B431360184B5C609E
:401E000000229A60DA60184B1B6854329A5C002A1ED01A6884215B58D31819681A68120AFF2313405A1C0B0E013353430F4C5C430F4B1868FA21890001F0ACFE01002000EC
:401E400001F0A8FE0B4BC118002003F04DFC05E00021002003F048FC00E0074810BDC046DC1600080B0000166422000860F59000C4000008980800000600520070B5040066
:401E80000D00FFF795FE002842D0002D42D0FEF79BF9C022D204204B1A60204B1B78002B05D01D4A1368802149000B4313601A4B802252005A609C60DD60194B1B68AD3A48
:401EC0009A5C002A1FD01A6884215B58D31819681A68120AFF2313405A1C0B0E01335343104C5C43104B1868FA21890001F052FE0100200001F04EFEE1239B00C118002070
:401F000003F0F2FB07E00021002003F0EDFB02E0064800E0054870BDDC1600080B00001664220008808D5B00C400000806005200F8B54F464646C0B406000D00140000286E
:401F400000D16FE1002A00D16EE1072903D94521B84800F0E3FD2368012B03D94621B54800F0DCFD0F2362689A4303D04721B14800F0D4FD237A1F22934303D04821AD4841
:401F800000F0CCFDE368032B03D94921A94800F0C5FD2369012B03D94A21A64800F0BEFD6369012B03D94B21A24800F0B7FDA369012B03D94C219F4800F0B0FDE369032B21
:401FC00003D94D219B4800F0A9FD236A012B03D94E21984800F0A2FD636A012B03D94F21944800F09BFDA36A012B03D95021914800F094FDE36A032B03D951218D4800F094
:402000008DFD236B072B03D952218A4800F086FD2768072D03D98849884800F07FFD012F04D9CA218900854800F078FD002F03D10123AB40736002E00123AB40B3606768AB
:40204000072D04D9F12189007C4800F067FD0F233A009A4303D07A49784800F05FFDA900784B1A687D23D35C9B191A6890460F2291468A40404690430200484607408F4017
:4020800017431F60277A072D04D9A22189006B4800F044FD1F233A009A4303D06A49674800F03CFD674B1A689369F31ADB0952691B01D318032D0AD81968E8001F2282404D
:4020C00091431F22174087400F431F600AE02A1F5968D2001F20904081431F20074097400F435F60E768082D04D9DD21C900534800F014FD032F03D95449504800F00EFDD3
:402100006900504B1A687C23D35C9B191A689046032291468A40404690430200484607408F4017431F602769082D03D94849434800F0F4FC012F03D94649404800F0EEFC07
:40214000B36901221100A9408B431740AF401F43B76163699846072D03D93F49374800F0DDFC4346012B03D93C49344800F0D6FC34487E230268D35C9B191A68012739006D
:40218000A9408C468A43110042463A40AA400A431A606B0010229046984403210B00424693406246134399467F2203689A5C9446B44463461A684B469A43A3693B40AB403E
:4021C0001A43E3691940434699400A4363461A6002688023D35CF6183368FF22944693431800236A1F40636A5A00022313403B43A26A9100042739400B431F00E36AD90060
:40220000182319403B000B43226B520161460A401343AD00FE2292001540AB4003433360002002E00E4800E00D480CBC90469946F8BDC046C864001027030000086500103A
:40224000C50300006422000889020000E9060000690600006A060000030400000404000001005A0070B505000C0000285DD000295DD0FF230A689A4303D099212D4800F001
:402280004DFCFF2322699A4303D09A21294800F045FCA3685B0D03D09B21264800F03EFC63685B0A03D09C21224800F037FCE3695B0F03D09D211F4800F030FC236A5B0F73
:4022C00003D09E211B4800F029FC1B4A11688B69EB1ADB0949691B01CB18216829607D211068415C6918E06808607E211068415C6918206908607F211068415C691860694D
:4023000008607C211068415C6918A06808606168A961116880228A5CAD18A2692A60E2691A60226A5A60002002E0044800E0034870BDC046C86400106422000801005A0088
:4023400010B5B0235B059B899BB2002B04D0B0235B059B899BB201E080235B0080225200934215D1184C23681968683A9B58C9180B680F208343963A13430B6021680C68E7
:402380009C23CB58E318196881430A431A6019E00D4C2368196898229B58C918B02040050A4BC2580A4B13400A681343C022920013430B60226811689C23D358CB18054A00
:4023C00082581A6010BDC0466422000848180000FFFCFFFF4418000030B5B0235B059B899BB2002B04D0B0235B059B899BB201E080235B0080225200934215D1184C2368CA
:402400001968683A9B58C9180B680F208343953A13430B6021680C689C23CB58E318196881430A431A6019E00D4D2B68196898229B58C918B0246405C12040012258094BA5
:4024400013400A681343C022920013430B602A6811689C23D358CB1822581A6030BDC04664220008FFFCFFFFB0235B059B899BB2002B04D0B0235B059B899BB201E08023FB
:402480005B008022520093420DD1104B1B681A6898215B58D21811680D4B0B40C021C9010B43136011E0094B1B68196898229B58C918084BB0225205D258074B13400A6848
:4024C0001343C022920013430B60704764220008FF8FFFFF18180000FFFCFFFF30B5B0235B059B899BB2002B04D0B0235B059B899BB201E080235B008022520093420DD1A5
:40250000134B1B681A6898215B58D2181168114B0B408021C9010B43136018E00C4D2B68196898229B58C918B02464050A4822580A4B13400A681343C022920013430B60F5
:402540002A6811689C23D358CB1822581A6030BD64220008FF8FFFFF4C180000FFFCFFFF10B5B0235B059B899BB2002B04D0B0235B059B899BB201E080235B00802252004C
:40258000934217D1002000F021FCB0235B055B78002B04D0B0235B055B78DBB200E02123222B03D8002803D1013004E0012002E0002000E0012010BD10B50400012803D97D
:4025C0001049114800F0AAFA002C03D10F4B5869C00F00E000200E4B1A684423D35C002B0ED0012C0CD1094B9B695B0005D4074B9B69002B03DA012002E0012000E0002019
:4026000010BDC0466207000048650010000026406422000870B504000D00154B1A684423D35C002B22D0072803D91249124800F075FA0F4B1A684423D35C002B04D00F4BF8
:402640009B690722134000E0002321009C420DD00A4882690726B243344014438461002D04D0994202D9C82000F04CFA70BDC04664220008CC070000486500100000264060
:4026800030B5021E22D0C368002B21D00368002B20D00579A900104BCC582300002103E0934205D019005B69002BF9D1012000E0002000280FD0002C03D1AD00064BEA50AD
:4026C00000E04A6111610023536104E0002002E0002000E0002030BDF416000830B585B004000D00022807D9042805D0032803D02A492B4800F012FA6B1EDBB2012B07D9C9
:40270000042D05D0082D03D02649254800F006FAA400254BE458042D13D0012D1CD112E0A3682B420BD1E3681A6802925B6801930393290002A8236898471B4B5C6164697F
:4027400002E0002000E00020002C24D0174B9842E6D1012DE4D11EE0022D01D104E01C006369002BFBD104E00F4B5C69002C00D0246900200DE0A3682B4209D1E3681A68E7
:4027800002925B6801930393290002A8236898472469002CEFD105B030BDC046B209000048650010B3090000F4160008FF00420070B50500012804D9E02149001B4800F0E6
:4027C000ADF91B4B1B68002B05D001210020FFF785FF040000E00024002C20D100F065FA0600134B1B68002B03D004210020FFF775FF104A136904218B431361012D01D04A
:4028000030BF00E020BF300000F053FA084B1B68002B09D008210020FFF760FF04E002210020FFF75BFF044C200070BD48650010F416000800ED00E0FF00420010B500F05F
:4028400034FA074B5A6807490A40E824A40122435A605A68114059605B6800F02AFA10BD00002640FF00FC0FF8B50700012803D93D493E4800F052F9B0235B055B78002B9B
:4028800004D0B0235B055B78DBB200E021239DB2B0235B059B899BB2002B04D0B0235B059E89B6B201E080267600002000F08EFA002814D180235B009E4212D1222D12D83D
:4028C0002B4B1B685C682B4821582B4B19403B068022520413400B432350002404E0274C02E0264C00E0254C80235B009E4201D1222D03D880235B009E4232D01C4B1A6850
:402900003123D35C002B04D1C421FF311C4800F005F9174B1B681D6A80235B009E4203D1002F05D0174A06E0002F03D0164A02E0164A00E0164A01212800FEF7CFFA002830
:402940000FD10B4B1A68B423D3585B191B68002BF7DBEB681B0E1B06A0221206934200D100242000F8BDC0464C0A0000486500106422000818F00000FFFFFFFE04004200A3
:4029800088640010010100300300000C010000300100000C70B50400022805D0052803D02049214800F0BAF8FFF7DAFD002836D000F07BF90600022C07D10120FFF754FF2B
:4029C000051E0FD1FFF7BCFC0CE018494B6907229343043A13434B61342000F093F8FFF77DFD0025002D16D110494B69072293431A000723234013434B61022C02D1FFF7C2
:402A000033FD08E0912000F07DF8FFF7E5FC0020FFF72AFF0500300000F04BF900E0044D280070BD02070000486500100000264003004200F8B50500012804D9822109018D
:402A4000294800F06BF8FFF78BFD002849D000F02CF90700002D11D10021244B244AD150E823DB00B0225205D65CF6B20120FFF7FBFE041E19D1FFF763FC16E0B022520510
:402A80001C4BD0581A4B194958501B49565CF6B21A481A581F218A4314390A431A50032000F030F8FFF71AFD0024002C15D11049124A8B581F20834306401E438E50002DA8
:402AC00002D1FFF7D1FC08E0072000F01BF8FFF783FC0020FFF7C8FE0400380000F0E9F800E0074C2000F8BD48650010307F00000000264010180000410700001CFF00006B
:402B00000300420010B5034B1B78584300F0C4F810BDC046D400000801BEFEE770B50D00044C18220100200002F0BCFDA5610020FFF7F2FF68070008024B1B685B6801224E
:402B40009A60704764220008054B802212069A649B6C002B01DB002000E002487047C0460000274003004600054B8022120198585B68FF221A4202D08023DB0218437047B0
:402B800000002640FEE7C04610B50A4B0268DA6142681A6282685A62C2689A620269DA6242691A6382695A63C2699A63FFF7EAFF10BDC04668070008F0B5474680B40028BD
:402BC00001D0192300E064238B429B415B42304D2C682268A826A45BA41822680327BA433B401A4322602C682268A45BA2181668284CA046264016602C682668AA22944699
:402C0000A25A96193268BA43134333602A6813686546525BD3181A68444614401C60002805D010291BD921291BD8012024E0184B1B6855229A5C914215D956229A5C91425C
:402C400013D957229A5C914211D958229A5C91420FD959229B5C99420DD804200CE000200AE0022008E0002006E0012004E0022002E0032000E00520054A12685268136886
:402C80000F218B430343136004BC9046F0BDC04664220008FFFCFFFF0230800803D001300238FCD1C046C0467047EFF3108072B6704780F310887047F0B54F464646C0B4B8
:402CC00083B006000D0000921F00012B03D95B212B48FFF723FF330B03D05C212848FFF71DFF284B1A686E23D35A9B08013B264A13432A009A4301D16B0003D45D21204865
:402D0000FFF70CFF32006A40F0231B011A40141E2FD1FFF7CAFF01901A4B18686C23C15A83689C4661446E23C35A9A08013A2A40920090466A22825A15402D0A5D432A008F
:402D4000424455182A68920A9202FF231E40009B002B01D00134FF3426437F0280239B001F403E4316432E600198FFF7A2FF002000E0064803B00CBC90469946F0BDC046CF
:402D80008865001064220008000F00400100CE00042805D10B4A116804230B4313600FE0094B1A681168A023D358CB180006C022920410401860034A136804218B4313602F
:402DC0007047C04610E000E06422000810B50400094B1B689B6CC340DB0703D4BE210748FFF79CFE044B1B681B691034A402E3580F20184010BDC04664220008CC650010F3
:402E0000014B18607047C0466422000870B50D000F4B184300040F4BD861FA24A40003E0013C0120FFF76EFE0A4B1B6CDB0701D4002CF5D1002C08D0064B196C01220A43D1
:402E40001A64DB6A2B80002000E0034870BDC0460080FFFF00003C400400160010B500040E4B184001430E4BD961FA24A40003E0013C0120FFF746FE094B1B6CDB0701D432
:402E8000002CF5D1002C06D0054A116C01230B431364002000E0034810BDC0460000FF7F00003C4004001600F0B583B006000A24C02149017548FFF7D1FF002804D16B46CF
:402EC000991D7248FFF7A2FF002C01D0013C00E06F48002805D16B46DA88C0235B019A42E6D1002825D16B46991D6A48FFF78EFF00281ED16B4606331B885B0519D40A243E
:402F00008021C9006348FFF7A9FF002804D16B46991D6048FFF77AFF002C01D0013C00E05B48002805D16B46DA888023DB009A42E6D1002804D16B46991D5748FFF766FF26
:402F4000002844D16B4606331B883F229343B278012A15D1F178012904D88FB20222D21B95B201E000250227402213439BB2302213436A46D380494BCB40494A136013E096
:402F8000F178002904D18FB20122D21B95B201E00025012740229343102213436A46D380404BCB403E4A13606B469C1DD9883943D9803948FFF752FFF378DB1B032213404F
:402FC000AA0092B213432380374A38498B50B0235B055B78002B04D0B0235B055B78DBB200E02123212B4FD0314BB0225205D35A9BB2002B48D0002804D16B46991D2D48AB
:40300000FFF704FF002824D16B469A1DDB8860218B4318001380B0256D05254C2B5B60310B405B08034324490B401380295BC901F020C00001400B43204919401180285B24
:40304000C0239B000340DB00194311801948FFF705FF002804D16B46991D1948FFF7D6FE002811D16B469A1DD988C023994311800F4BB0204005C05A302303409B001943A4
:4030800011800F48FFF7EAFE03B0F0BD021E000004001600031E0000091E00000048E801C00000080024F40064F0010000003C4016180000071E00007FF5FFFFFFE7FFFFDD
:4030C000061E000070B50C004000084901430848FFF7C4FE051E04D106490748FFF7BEFE05006001FFF70EFD280070BD01100000081E0000376800000F1E00000349044AFD
:403100008858102303438B507047C04600003C4070F00100F0B59DB013A9144B0A00180070C870C270C870C270C870C20AAD28001A002432D0CAD0C0D0CAD0C0D0CAD0C087
:4031400001AC22004833C1CBC1C2C1CBC1C2C1CBC1C20748FFF786F829000648FFF782F821000548FFF77EF81DB0F0BD7C670010000132408001324000023240F8B5051E3D
:4031800000D1DDE0734B5B689B0301D5FFF756FB714C03E0013C0120FFF7B4FC6F4B704AD358002B01D0002CF4D16E4B6C4AD358DB0704D56C4BD358DB0700D5C2E0674BD3
:4031C000674AD358002B00D0BEE0FFF7A3FF644B6649674A99502A78A02109030A4365495A506549654A9950802252009B58DB0700D5ABE0624B1B6F1B0709D4614B1868E5
:40320000614B984206D9190000F0C4FC013802E0012000E00020524B1B68002803D040035A4A104300E05A4818434D4B1860494B5B695B0017D501210320FFF7EBF9454B94
:403240005B699B0F01221340524A116844228A5C002A0ED0002B0CD03E4A93698021C9050B43936105E03E494B4A8858032303438B503B4C3B4AA658484B3343A350402037
:40328000FFF740FC464BE358DB070BD42700444C01233B514020FFF735FC03233B514020FFF730FC3F4F37403F4E3E432D4B2C4AD650FA24E40003E0013C0120FFF722FCAF
:4032C0003A4B3B4AD358DB0601D4002CF4D1002C01D0002400E0374C002C23D12049364A8858082303438B500120FFF765F9002801D1324E3E43324B1E4001231E43194B05
:40330000174AD650144E03E0013E0120FFF7FAFB154B134AD358DB0701D4002EF4D1002E00D1244C002C03D12800FFF7BDFD0400002C0CD168782978FFF7C4FE040006E06D
:40334000204C04E0204C02E01F4C00E01F4C2000F8BDC04600002640F07E0E006CF0010000003C40A0F00100B4F0010006000001A4F00100A8F0010001000100ACF0010059
:4033800000F03D40C800000800093D00041A0080040A008064220008C4F0010030000300B0F00100EFFFFEFF2000020010400000000032400400160068F0010028000200DB
:4033C000FFFFFBFF010016000300160002001600014B18687047C046C000000810B5002405E02000FEF756F9032804D00134042CF7D9002000E0012010BDC046A023DB0044
:40340000064AD35803221340012B03D0032B03D1012002E0012000E0002070470000264070B5012902D0082940D045E00320FDF7A7FE254B984241D0FFF7D0FF01283FD0BC
:40344000022004F097F80500FFF72FFC1F4B186004F094F80400062817D0022D0AD1022005F0D0FE032C01D0052C10D1002810D0174C13E0012005F0C5FE022C0BD000289D
:403480000BD1FFF795F9124C08E0002406E0104C04E0002402E00E4C00E00D4C0C4B9C420FD10A4B1868FFF704FC0AE0074B1868FFF7FFFB002404E0054C02E0044C00E08C
:4034C000034C200070BDC046010188002C170008FF004200002803D0024B5860002000E0014870472C1700080100160010B594B001AC4C220021200002F0CCF8D7231B0181
:40350000A3811B2323836383183B2377013363770C33E3772022A3540132A35441323433E252613A0433E2540D48FFF7A9F804F007F807A804F052F800280ED1094B0293D4
:40354000094B5B685968002904D022222630684402F097F801A804F015F814B010BDC046E0000008A40700082C170008014B024AD050704778F0010000003C4010B50CF073
:403580009FFD10BD10B5024B1B68984710BDC0463C17000810B5002809D0FA23FF33994207D80A00044902F06CF8002002E0034800E0024810BDC0460708001601001600FE
:4035C000F0B55F4656464D464446F0B4B14CA54481460E00904605930B00AF4A914204D942468A18AD498A4211D9AD4A934204D94246B218AB498A4209D9AB4A934200D832
:4036000023E14346F318A94A934200D922E1A84B5B695B0010D5A64B5B6907241C40022C25D10520FFF7B6F90190A24B9842F8D003940123049324E09F4B9D4AD3581F227A
:403640001A40E823DB00B0214905CB5C9B1A5A1E9341DBB20493002B0FD10120FFF7EAF9944B9842F9D001900523039309E00394012304930023019303E005230393002313
:4036800001938E4B019A9A4204D1D621FF318C48FFF744FAF0231B069C466644730A9A465C0200210320FDF7DFFC0028F9D100250023029399E0B4421BD3BD4219D24A46EE
:4036C00052191078804606A84146C154594600290DD1802149058846A044414609786846017001781278914201D001229346013505E080225205A218127806A8C254013465
:40370000013304E0002100238B46844647466D4A9342D0D959466046B846002962D0019B002B5FD1059B002B51D1C83300951D00B3465646A24680231B03F7187F0238009B
:40374000FEF746FB0400013D0120FFF7DBF9A423DB0322001A409A4201D1002DEBD122000294009D5446B2465E46574B9A4205D1FEF72AFB554B9842FAD00290029B002B97
:4037800019D1C83300971F00A34606A90098FEF775FB0400013F0120FFF7B4F9A423DB0322001A409A4204D1002FEED102945C4601E002945C46444B029A9A4211D1FEF7E2
:4037C00003FB424B9842FAD0029001200AE0802000035044400206A9FEF7A6FA0290012000E0012001239C46E244029B019A134301D1454586D3002801D0FFF79DF9002177
:403800000320FDF777FC0028F9D1019B002B25D1274B5B695B0009D5039B022B06D10220FFF7B8F80190234B9842F8D0204B1B681B0213D4049B002B10D10020FFF7FAF830
:4038400001901C4B9842F8D008E000230193204B029303E0002301931D4B0293019B002B0CD11C4B029999420AD0194B994207D0002901D1002004E0174802E0174800E088
:40388000174887239B009D443CBC90469946A246AB46F0BDE4FDFFFFFFFFFF0F00001010FFFFFF1300800014FF070016000A001600002640040042001CFF00000300420059
:4038C000E8670010FF0100000100500002005000060052000200520013001600120016000100160010B500280AD0FA23FF33994208D8F93BFF3B0A000349FFF761FE02E0E6
:40390000024800E0014810BD07080016010016000020704710B50C000088AE235843044B9C4660440A2100F035F9208010BDC04691FCFFFF10B50C000023C05E044B584357
:40394000044900F0B1F9BD23181A208010BDC0464B280000102700000020704710B5FFF7D1F810BD064B1B681B6800229A5E002A05DB1F231A401E3B9340024A1360704750
:403980003017000800E100E0094B1B681B6800229A5E002A0ADB1F231A401E3B9340802204498B50BFF34F8FBFF36F8F7047C0463017000800E100E0A023DB00024AD358C0
:4039C000032018407047C04600002640024B034AD058C00F7047C0461C0500000000264010B5FEF775F810BD70B504000D0016000320FDF7C5FB054B984205D032002900E3
:403A00002000FDF797FF00E0014870BD0101880003004A0070B5431ADC171B196340934227D3164B164CE458A405A40D884208D9401A51084018110000F0ACF8201A0ED5C3
:403A40000AE0081A51084018110000F0A3F800190C4B984202D802E0002000E00A48084D06496B589B0A9B028205920D13436B5001E000240020201A70BDC0463C050000E2
:403A800000002640FE030000FF03000010B5034B1A6880210902FFF7BDFF10BDF800000810B5FFF737FB0220FFF760FD094C236818680949FDF790F923681B6800229A5E24
:403AC000002A05DB1F231A401E3B9340034A136010BDC046301700087D35001000E100E00420704710B5FFF7E0F810BD10B5FFF7E0F810BD10B5FEF75BFE10BD10B500212E
:403B0000FEF788FD10BDC04610B50020FDF770FD10BDC04610B50020FDF742FD10BDC04610B5074B1960012201000020FDF776FC002803D100220349FDF770FC10BDC0465D
:403B40003C1700088535001070B50B001500020000210120FDF706FC041E03D029000020FDF786FC200070BD10B5084B1B78002B06D10748FFF7AEFC0122044B1A7000E028
:403B80000020002801D1FFF7B1FC10BD40170008FC000008002243088B4274D303098B425FD3030A8B4244D3030B8B4228D3030C8B420DD3FF22090212BA030C8B4202D360
:403BC0001212090265D0030B8B4219D300E0090AC30B8B4201D3CB03C01A5241830B8B4201D38B03C01A5241430B8B4201D34B03C01A5241030B8B4201D30B03C01A5241FF
:403C0000C30A8B4201D3CB02C01A5241830A8B4201D38B02C01A5241430A8B4201D34B02C01A5241030A8B4201D30B02C01A5241CDD2C3098B4201D3CB01C01A5241830913
:403C40008B4201D38B01C01A524143098B4201D34B01C01A524103098B4201D30B01C01A5241C3088B4201D3CB00C01A524183088B4201D38B00C01A524143088B4201D32A
:403C80004B00C01A5241411A00D20146524110467047FFE701B5002000F0F0F802BDC0460029F7D076E7704703460B437FD4002243088B4274D303098B425FD3030A8B428B
:403CC00044D3030B8B4228D3030C8B420DD3FF22090212BA030C8B4202D31212090265D0030B8B4219D300E0090AC30B8B4201D3CB03C01A5241830B8B4201D38B03C01A13
:403D00005241430B8B4201D34B03C01A5241030B8B4201D30B03C01A5241C30A8B4201D3CB02C01A5241830A8B4201D38B02C01A5241430A8B4201D34B02C01A5241030A97
:403D40008B4201D30B02C01A5241CDD2C3098B4201D3CB01C01A524183098B4201D38B01C01A524143098B4201D34B01C01A524103098B4201D30B01C01A5241C3088B4259
:403D800001D3CB00C01A524183088B4201D38B00C01A524143088B4201D34B00C01A5241411A00D201465241104670475DE0CA0F00D04942031000D34042534000229C46AB
:403DC00003098B422DD3030A8B4212D3FC22890112BA030A8B420CD3890192118B4208D3890192118B4204D389013AD0921100E08909C3098B4201D3CB01C01A524183097D
:403E00008B4201D38B01C01A524143098B4201D34B01C01A524103098B4201D30B01C01A5241C3088B4201D3CB00C01A524183088B4201D38B00C01A5241D9D243088B4291
:403E400001D34B00C01A5241411A00D20146634652415B10104601D34042002B00D54942704763465B1000D3404201B5002000F005F802BD0029F8D016E770477047C04660
:403E8000002B11D1002A0FD1002900D1002802D00021C943081C07B4024802A14018029003BDC046D9FFFFFF03B4684601B5029800F050F8019B9E4602B00CBC7047C046D4
:403EC000F0B54F464646C0B41604360C9946330005042C0C070C150C63437E436F4365431C0CAD1964199C46A64203D980235B02984647446346250CEF191D044B464A4349
:403F000043432D0C240464199918C91920000CBC90469946F0BDC04670B500220C4B04000D0001F05DFA002804D12000290001F0B5F970BD064B00222000290000F05AFE2D
:403F400001F0ACF980231B069C466044F1E7C0460000E041F0B54D46564644465F46F0B4924683B004000D0099468B422FD82CD04946504601F05CFA29000600200001F044
:403F800057FA331A9846203B9B4600D574E053465A4693401F005346424693401E00AF4229D826D05B46A41BBD41002B00DA79E0002200230092019301235A4693400193A9
:403FC000012342469340009319E08242D0D900220023009201930C9B002B01D01C605D600098019903B03CBC90469946A246AB46F0BDA342D6D90022002300920193434662
:40400000002BE8D0FB0772081A4346467B080EE0AB4201D1A2420CD8A41A9D41012024196D410021013E24184D41002E06D0AB42EED9013E24196D41002EF8D15B4600985C
:40404000019900196941002B22DB2B005A46D3402A004446E2401C005B461500002B2CDB26009E40330026004746BE403200801A994100900191AEE7424620239B1A5246A6
:40408000DA40414613004A468A4017001F4382E7424620239B1A2A0046469A402300F3401343D5E74246202300219B1A0022009101920122DA40019282E742462023260087
:4040C0009B1ADE402F00B446974066463B003343C9E7C046F0B556464D4644465F46F0B41D000E034C00CB0F87B0070092468146360B640D98466AD06D4B9C4235D08022FB
:40410000430F12041343F6001E43C3009946694B00279C460023644402932B0368001B0BED0F51469B46400D009500D178E0604B98426CD05B46DA004B0F802109040B43DE
:4041400013439B465346D9005A4B9C46002360444246201A6A40924601901F430F2F00D9B0E05548BF00C0598746374300D088E0002399460233082700260293CDE7434618
:40418000B34649460093029B009A9246022B00D0BFE1002153460122002689461A40444B002136030C0D2405360B2643434C1B0526401E437600D2077608164348463100DC
:4041C00007B03CBC90469946A246AB46F0BD330003434FD0002E00D1BCE1300001F00AF903000B3B1C2B00DDADE11D220100D31A08393A008F408E40DA40B9461643304B50
:4042000000279C46002360444442029385E753465A4613432CD1002300219B46023397E70B4320D05B46002B00D19EE1584601F0E1F803000B3B1C2B00DD8FE10200594683
:40424000083A91408B461D21CB1A5146D9400B0059460B4351469B469140194B9C4660444042002374E7002300219B4601336FE703236DE700239946013304270026029317
:404280004BE703230C27029347E70122D51A382D00DCB0E153461A4000210023002689467EE700238026994600223603004B77E7FF07000001FCFFFF24730010FFFF0F805A
:4042C000F30300005E4500D972E100D16DE1019B4D46013B01930023340002935B461E020B0E1E430B020393330C994633041B0C494620000093FFF74DFC009B37004343BC
:404300000600494620009846FFF7CAFC2C0C09040C43A04509D9E419731EA74200D95CE1A04500D859E1023EE4194346E41A49462000FFF72FFC0300009A80465343494633
:4043400020009B46FFF7ACFC2A040904120C0A4393450DD94346D219013B974200D93AE1934500D837E102235B429C46D219E0445B46D21A4346360433439B460399180CDB
:404380000B0C1D00059309045B46090C0C001B041B0C4443049159436B4368431B190D0CEB189C4203D980246402A44660441C0C09041B04090C20185D18824200D2DEE0FF
:4043C00000D1D7E0161A029B9C465D1BAC459B415B42F61AB74200D106E149463000FFF7D9FB009B04004343494630009846FFF757FC2E0C09040E43B04509D9F619631E50
:40440000B74200D9F3E0B04500D8F0E0023CF6194346F31A494618000293FFF7BBFB009B06004343494602989846FFF739FC2D0409042D0C0D43A84509D9ED19731EAF42F8
:4044400000D9D6E0A84500D8D3E0023EED192404210043463143049E059A3000ED1A0B040C0C1B0C58436643534354439A19030C9B189E4203D980225202944664441A0CA3
:4044800000041B04000C14191B18A54250D34DD001231943964A019B94466344002B00DCF3E64A0709D00F220A40042A05D00A1D8A42894149428B4411005A46D20108D5C9
:4044C0005A468C4B1A4093468022D2009446019B6344894A934200DD5BE65A46C908500708435602514601225B058146360B5B0D0A4055E680231B031E4211D05A461A4243
:404500000ED15E461E433603360B2A0089467B4B46E6032B00D1E1E0012BBBD11A40BBE61E433603360B4246744B39E6002BB1D07D194A1EAF4252D91100A542A8D1039AAA
:404540009A42A5D1A6E703003E00283B9E400023994654E600F04EFF203041E603005246283B9A400021934677E6504600F042FF20305EE6029B0026AB4200D323E7039E32
:404580000299B44661448846B045B6415B467642F619B218013B0291974213D290424FD800D18EE0161A9B460DE7894500D28EE674084B46F60735005B081D434B46DB0782
:4045C00002938BE69742EDD10399029CA142E5D93E1A9B46F7E69846CAE61E00A5E6AC423ED874D0110053E70121494252E71C000EE71E002BE71F2D3CDC20230A005846ED
:404600005B1B9840EA4099400243481E81415E461143EE404B0709D00F230B40042B05D00B00191D99429B415B42F61833023CD55346012200211A40002601238946AFE51D
:4046400002235B429C46039CE344A446029B63449846A045B6417642F6190293B218B1E603988A1E41008142B6417642F619AD19039161E71F225242D31A5A46DA401300F5
:40468000202D29D040225846551BA8400143481E814107200B4318400026002809D00F2200261A401900042ABBD10B0070077602360BDB0803439946012253461A400023FC
:4046C0006EE502998D42BBD89B4600267BE603989842C5D3110032E70020D7E780265B4636031E433603360B009A8946034B57E5FF030000FFFFFFFEFE070000FF07000097
:40470000F0B55F4656464D464446F0B40D0399464E002B0B87B00700924680469B46760DCC0F002E69D06D4B9E4235D05B468022DD001204430F13432B439B46C300984672
:40474000674B00279C460023664401934A4615035000D20F53462D0B400D914600D176E05E4A90426CD080225B0F120413435C4AED0094461D4353460022DB006044494664
:404780003618701C6140029017430F2F00D9AFE05448BF00C759BF465B461F4300D088E000239B469846023308270193CEE74946022A6AD0032A00D109E2012A00D0BBE12D
:4047C00011400022002300259046CCB200212D030A0D12052D0B1543434A1B0515401D436D00E4076D0825434046290007B03CBC90469946A246AB46F0BD034352D05B4662
:40480000002B00D18AE1584600F0F4FD03000B3B1C2B00DD7BE11D22D31A3A0001005D46DA4008398D4013008F402B439B46B8462E4B00279C46002360444642019385E797
:4048400052462A432CD100250023022297E752462A4321D0002D00D154E1280000F0CAFD03000B3B1C2B00DD46E11D21CB1A51460200D9405346083A954093400D431B4AA3
:40488000944660444042002279E7012400220C40124B0025904699E70025002301226EE703226CE700239B4698460133042701934CE703230C27019348E700238025984609
:4048C00000242D03054B81E75D464346019A6FE75D4643462100019A6AE7C046FF07000001FCFFFF64730010FFFF0F80F30300004246120C91461A0C9446424617044A4635
:404900001B041B0C5A43604690464A4642431000039262461C003F0C7A437C4342440192220C9246019A5244904506D98246802040028046C24450460390100C04904846F2
:404940002404240C1204121905922A0C2D042D0C68432C00824648467C4350438146200C8046574357444744BA4503D9802040028046C144380C3F04B84648442404240C7E
:4049800001900498A044404404905846000C814658460404200C8246070048465F434C464343604660436446834650464443380C8446E4186444A34203D980235B029C4646
:4049C000E34448463F04230C3F0C2404E419574668436F4384464D46504655434243380C814662444A445B44944503D9802040028446654403983F04834604983F0C8446D6
:404A0000E344C345804140428246100484460198674484466744A344BC46A345A4419946D44464428742BF41D4458041E144A04699459B417F424042C8440743120CBA1861
:404A4000A045A4415F423B0064422343D71843467D19DB0D6D021D435B465A02059B1A43531E9A415B46DB0D1A4343465B021343EA0107D501225C0813402343EA07029EBF
:404A800013436D08574AB218002A4BDD580709D00F201840042805D0181D98429B415B42ED180300E80104D54F4A15408022D200B2184E48824200DDE7E60124DB086807B5
:404AC00018436D02530580462D0B5B0D0C407DE6802259461203114208D0154206D115432D0398462D0B4C46414B6FE65D4615432D032D0B3E4B69E603005546283B9D40A6
:404B00000023BCE6504600F075FC2030A8E60300283B9F400023BB46984689E600F06AFC203073E60124A61A382E07DD00220C4000230025904649E6029EA3E71F2E20DCC9
:404B400020222C001800921BF040944093400443581E83411C43F540630709D00F232340042B05D023001C1D9C4292415242AD182B021FD5012400220C4001230025904601
:404B800024E61F202C004042821AD440202E1CD04022961BB5402B43581E83410720234318400025002809D00F2200251A401C00042AD8D1230068076D022D0B0124DB0875
:404BC000034398460C40002300E60025E3E780220124120315432D0398462D0B0C40044BF4E5C046FF030000FFFFFFFEFE070000FF070000F0B557464E464546E0B40E004E
:404C00001100F20F9246C500420F180337037400400A4E0F7F0A3043CF4E17435A00640D520DDB0FC900B24200D1E5E001267340A61AB446534500D1AFE0002E00DC0DE1A6
:404C4000002A3AD103000B4300D0E4E06B0709D00F232B40042B05D02B1DAB42AD416D427F191D003B0200D488E0BB4B01349C4200D110E13A00B94B51461A4001235007A9
:404C8000ED08520264050543120B640D0B400021280012030D0D120B64052D0515436208AF4CDB072C401443640064081C4321001CBC90469946A246F0BDA74B9C42C5D0B8
:404CC00080231B0418436346382B00DDFDE01F2B00DD30E1624620239B1A02009A40664690460A009940F24046464B1E99413243114363460200DA40691A8D429B410D00EE
:404D0000BA1A5B42D71A3B0235D57A02530A98464346002B00D1C4E0404600F06BFB0300083B1F2B00DDC5E020222900D21A4746D1409F400A009D403A439C4200DDC0E069
:404D40001C1B631C1F2B00DDE4E0202114002800C91AD8408C408D400443DA40681E854117002543002471E7424663461A4300D14CE2674645466B0700D069E701235146C7
:404D80007807ED08FA080B40054373498C4238D012036405120B640D79E7002E00DC9AE0002A47D06C4A944200D14FE78022120410436246382A00DC08E10143481E81414E
:404DC0000022C9B24919D219A942BF410D007F42BF183A0200D442E15F4A0134944200D14EE101205D4A69083A4028400843D507054357089A4629E706000E4300D017E754
:404E000014E72900114300D1F9E1802109030A431203120B3BE701235B429846C4446346002B72D1691A8D429B413F1A5B42FF1A0D0068E702000A4300D107E701225242E5
:404E40009046C4446246002A00D0E6E06918A942B6413F187642F7190D00BAE7002E00D080E0621C5205520D012A00DCF9E06A1A91464D45B6413A1A7642921B90461202C3
:404E800000D499E04D1BA9428941C71B49427A1A90469A463CE752460123002513400022F5E6280000F0A6FA20300300083B1F2B00DC39E72A002838824000259C4200DCBE
:404EC0003EE7264FE41A1740C0E60143481E81410022C9B210E7002E00D0F1E0621C94465205520D012A00DCA0E01B4A944500D1C5E06918A94292413F185242D21949089F
:404F0000D5070D4357086446A0E6134B9C4200D0D9E69BE611001F3CE1400C00202B00D180E04021CB1A9A4015436A1E95410027254300241FE763460200203BDA406346FD
:404F4000202B71D0402366469B1B98400143481E814111430022CFE6FF070000FFFF7FFFFFFF0F80002C48D0CA4CA24200D1A2E07442A1468024240427434C46382C00DD2B
:404F8000DBE01F2C00DD44E14E462024A41B3E00A640A246B0464C462E00E640B4464646644626435446A5406C1EA54134002C434D46EF400D1B28E04A4643464D461A4344
:404FC00000D0A5E6002300240025DEE61F2A5ADC66462022921B060096409146B04662460E00D640424616434A4691404A1E9141020060463143C240E4E63C002C435AD05E
:40500000F443A146002C52D14D1BA9428941C71B49427F1A14009A4675E69E4A944200D0C7E613E600227FE700208FE7002C00D0C8E03B002B4300D10FE103000B4300D10F
:4050400004E66918A9429B413F185B42DF193B0200D41AE1904B0D001F406446F6E59A4689E63A002A43002C5CD1002A75D102000A4300D1CAE007000D009A46E6E5644648
:405080000022002581E662460600203AD6406246B046202A00D1B7E040226646921B904001434246481E8141114300228AE6794CA24200D061E707000D0014009A46C5E5FC
:4050C000002C41D13C002C4378D0F443A146002C20D0704CA24271D04C46382C00DDB2E01F2C00DDBCE02026341BA2463C005646B4404E46A0462C00F440A44644466646F8
:405100003443A4465446A54064466E1EB54125434C46E7406D188D4289413F184942CF19140056E6002A2FD102000A4300D184E007000D009A46574C88E53D436F1EBD414D
:40514000ECB200270D1B60E7524CA24236D0744280263604A1463743BEE702000A4300D174E56A1A90464545B6413A1A7642921B9446120200D4F7E54D1BA9428941C71B2D
:4051800049427F1A9A4661E502000A433AD0ED087C072C438025FA082D032A4208D0C7082F4205D145072C003A009A46C9080C43670FD200E5001743364C47E507000D0039
:4051C000140043E53A002A4343D002000A4319D0ED087C072C438025FA082D032A4207D0C6082E4204D147073C003200C9080C43D700620FE50017439A46264C26E500228B
:40520000002544E5234C21E5002049E700230025BBE54C463E00203CE6404C46B446202C31D040244E46A61BB7403D436C1EA54164462C4300270D1BE7E680220023120399
:40524000144C0025A1E53D436F1EBD410027EDB260E707000D000F4CF8E407000D00F5E44E463C00203EF440A0464C46202C0ED040244E46A41BA7403D436F1EBD4144469C
:405280000027254346E70027CFE70D0073E50027F2E7C046FF070000FFFF7FFF0B0330B5134D1A0B4B005B0DC90F0024AB4211DD104CA34210DC8024640322430E4CE41A71
:4052C0001F2C0CDD0D48C31ADA4013005C42002900D11C00200030BD094BCC18FAE7E040084CA44663449A4013000343EEE7C046FE0300001D0400003304000013040000BE
:40530000FFFFFF7FEDFBFFFF70B5051E28D000F071F8154B154A1B1AD21A1F2A16DD2C00134A0025D21A94405A052403240B520D002124030B0D240B1B0523430D4C12054F
:40534000234013435B002800590870BD0B212C00081AC440954024035A05240B520DE7E700220024E4E7C0461E0400003304000013040000FFFF0F808446101C62468C46AA
:40538000191C634600E0C0461FB500F001F9002801D40021C8421FBD10B500F055F84042013010BD10B500F0F3F8002801DB002010BD012010BDC04610B500F0E9F80028A2
:4053C00001DD002010BD012010BDC04610B500F07BF8002801DC002010BD012010BDC04610B500F071F8002801DA002010BD012010BDC0461C2101231B04984201D3000CA4
:4054000010391B0A984201D3000A08391B09984201D30009043902A2105C40187047C0460403020201010101000000000000000010B5002903D1FFF7DDFF203002E0081CCF
:40544000FFF7D8FF10BDC046F0B55F4656464D464446F0B41F035C00DB0F9A46194B0E034D00C90F8046360B6D0D8B4691463F0B640D9D4219D0134B9C421BD00123A54225
:4054800006D018003CBC90469946A246AB46F0BDBE42F6D1C845F4D1D34510D0002DF0D1304303005A1E9341EBE7310001230143E7D1E0E73A430123002AE2D1DEE700233A
:4054C000DFE7C046FF070000F0B55F46444656464D46F0B41F033C0B2C4F0E034D00A3465C008446360B6D0DC90F9046640DDB0FBD422BD0254FBC422ED0002D0ED1304335
:405500000700814678427841002C17D15F463A4314D14B460020002B0AD006E0002C02D15846024301D099421AD00123484218433CBC90469946A246AB46F0BD0028F2D0D5
:4055400058425841012240421043F1E737000743D0D002204042EBE75F461743CDD0F8E7A542E2DC05DB5E45DFD808D000205E45DED248424841012340421843D8E7C44510
:40558000D3D80020C445F4D3D2E7C046FF070000F0B55F464D4644465646F0B41C03240BA4462F4C0F034D005E00C90F80463F0B6D0D8B469146760DDB0FA54220D0284CB2
:4055C000A64222D0002D12D1384344424441002E20D0002C0DD05C42634101245B421C4320003CBC90469946A246AB46F0BD002E17D05B4519D05B465C4201231C43EFE728
:40560000390002240143EBD1D9E7614602241143E6D1D7E761460A43DBD100240028DFD0E9E761460A43E4D1E5E7B54203DD01225C421443D4E7B542CDDB6745DBD809D054
:4056400000246745CCD259464C426141012449420C43C5E7C845CED80024C845F3D3BFE7FF07000030B50024A24208D0035D651C0C5DA34201D0181B02E02C00F4E70020EB
:4056800030BD002310B59A4203D0CC5CC4540133F9E710BD03008218934202D019700133FAE77047030030B5002A0DD00C7801335D1E013A2C700131002CF5D19A189A4201
:4056C00002D01C700133FAE730BD0000F8B5C046F8BC08BC9E467047F8B5C046F8BC08BC9E4670470000000001B40248844601BC604700BF1D0300080300000001000000A6
:40570000010000000000000005036000040000000100000000000000010000000604600008000000A0160008BD01001073797374656D5F70736F63365F636D30706C7573EA
:405740002E6300000300180003000000F4010000140004010A0009050800000063010000002034407400802034407400002234407400802234407400002434407400802414
:4057800034407400002634407400802634407400002834407400802834407400002A34407400802A3440740000213440CC59001090000000002334405C5A001090000000DA
:4057C00000253440EC5A001090000000002734407C5B001090000000002934400C5C001090000000002B34409C5C001090000000006034402C5D00107C00000080603440FF
:40580000A85D00107C00000000613440245E00107C00000080613440A05E00107C000000006234401C5F00107C00000080623440985F00107C000000006334401460001004
:405840007C00000080633440906000107C000000006434400C6100107C00000080643440886100107C00000000653440046200107C00000080653440806200107C000000A9
:4058800088038C018E029C01B202B401B828BAC0BE14DC24E008E32128156851ACC000000C20344002703440017134401C000000000000000000000000660A0000000000C8
:4058C00000000000000000000000090300000000270000000000000000000000600660000000000000000000000000000003080000000000030000000000000000000000A1
:40590000680000000000000000000000000000001212000000000000130000000000000000000000CC0006BA0000000000000000000000001313000009001D1DFE000000D5
:405940000000000000000000000000000000000000000000000000000004040000000000030000000000000000000000CC000000000000000000000000000000131300002A
:4059800000000000040000000000000000000000000600000000000000000000000000000000080000000000800000000000000000000000000000600000000000000000F5
:4059C000000000000000000000000003000000000000000000000000FFFFFFFFFFFFFFFFFFFFFFFFFFFFFFFFFFFFFFFFFF000000FF22FF6FFFFFFFFFFFFFFFFFFFFFFFFF36
:405A0000FFFFFFFFF0000000000000000000001F0000000000000000003F000F030000F0FFFFFFFFFFFFFFFFFFFFFFFF1111111D1111111111111111111111111131D111E6
:405A4000313111111111111111111111111111111D1111111111111111111111000000000000000000000000FFFFFFFFFFFFFFFFFFFFFFFFFFFFFFFFFFFFFFFFFF00000013
:405A8000FFFFFFFFFFFFFFFFFFFFFFFFFFFFFFFFFFFFFFFFFF00000000000000000000000000000000000A000000000000000000FFFFFFFFFFFFFFFFFFFFFFFF11111111B9
:405AC0001111111111111111111111111111111111111111111111111111111111111111111111111111111111111111000000000000000000000000FFFFFFFFFFFFFFFFC2
:405B0000FFFFFFFFFFFFFFFFFFFFFFFFFF000000FFFFFFFFFFFFFFFFFFFFFFFFFFFFFFFFFFFFFFFFFF00000000000000000000000000000000000000000000000000000087
:405B4000FFFFFFFFFFFFFFFFFFFFFFFF1111111111111111111111111111111111111111111111111111111111111111111111111111111111111111111111110000000001
:405B80000000000000000000FFFFFFFFFFFFFFFFFFFFFFFFFFFFFFFFFFFFFFFFFF000000FFFFFFFFFFFFFFFFFFFFFFFFFFFFFFFFFFFFFFFFFF00000000000000000000000F
:405BC00000000000000000000000000000000000FFFFFFFFFFFFFFFFFFFFFFFF1111111111111111111111111111111111111111111111111111111111111111111111114D
:405C0000111111111111111111111111000000000000000000000000FFFFFFFFFFFFFFFFFFFFFFFFFFFFFFFFFFFFFFFFFF000000FFFFFFFFFFFFFFFFFFFFFFFFFFFFFFFFBD
:405C4000FFFFFFFFFF000000000000000000000000000000000000000000000000000000FFFFFFFFFFFFFFFFFFFFFFFF1111111111111111111111111111111111111111E1
:405C800011111111111111111111111111111111111111111111111111111111000000000000000000000000FFFFFFFFFFFFFFFFFFFFFFFFFFFFFFFFFFFFFFFFFF0000001D
:405CC000FFFFFFFFFFFFFFFFFFFFFFFFFFFFFFFFFFFFFFFFFF000000000000000000000000000000000000000000000000000000FFFFFFFFFFFFFFFFFFFFFFFF1111111181
:405D0000111111111111111111111111111111111111111111111111111111111111111111111111111111111111111100000000000000001F1F1F1F1F1F1F1F1F1F1F1F03
:405D40001F1F1F1F121F1F1F1F1F1F1F1F1F1F1F1F1F1F1F000000000000000B000000000000000000F2000100000000FFFFFFFFFFFFFFFFFFFFFFFF161111111111111145
:405D80001311111111111111D11111111111111111111111111111111111111111111111111111111111111100000000000000001F1F1F1F1F1F1F1F1F1F1F1F1F1F1F1F89
:405DC0000A1F1F1F1F1F1F1F1F1F1F1F1F1F1F1F00000000000000000000000000001F000000000000000000FFFFFFFFFFFFFFFFFFFFFFFF111111111111111111111111E9
:405E000011111111111111E111F1111111111111111111111111111111111111111111111111111100000000000000001F1F1F1F1F1F1F1F1F1F1F1F1F1F1F1F1F1F1F1FE2
:405E40001F1F1F1F1F1F1F1F1F1F1F1F000000000000000000000000000000000000000000000000FFFFFFFFFFFFFFFFFFFFFFFF11111111111111111111111111111111AA
:405E8000111111111121111111111111111111111111111111111111111111111111111100000000000000001F1F1F1F1F1F1F1F1F1F1F1F1F1F1F1F1F1F1F1F1F1F1F1FCA
:405EC0001F1F1F1F1F1F1F1F000000000000000000000000000000000000000000000000FFFFFFFFFFFFFFFFFFFFFFFF111111111111111111111111111111111111111162
:405F00001111111111111111111111111111111111111111111111111111111100000000000000001F1F1F1F1F1F1F1F1F1F1F1F1F1F1F1F1F1F1F1F1F1F1F1F1F1F1F1F21
:405F40001F1F1F1F000000000000000000000000000000000000000000000000FFFFFFFFFFFFFFFFFFFFFFFF11111111111111111111111111111111111111111111111119
:405F800011111111111111111111111111111111111111111111111100000000000000001F1F1F1F1F1F1F1F1F1F1F1F1F1F1F1F1F1F1F1F1F1F1F1F1F1F1F1F1F1F1F1F69
:405FC000000000000000000000000000000000000000000000000000FFFFFFFFFFFFFFFFFFFFFFFF11111111111111111111111111111111111111111111111111111111D1
:40600000111111111111111111111111111111111111111100000000000000001F1F1F1F1F1F1F1F1F1F1F1F1F1F1F1F1F1F1F1F1F1F1F07151F1F1F1F1F1F1F000000004E
:406040000000001F0000000000000000000000000F000000FFFFFFFFFFFFFFFFFFFFFFFF11111111111111111111111111111111111111111111111111111111D11111111E
:406080001111111111111111E11111111111111100000000000000001F1F1F1F1F1F1F1F1F1F1F1F1F1F1F1F1F1F1F1F1F1F1F1F1F1F1F1F1F1F1F1F000000000000000020
:4060C00000000000000000000000000000000000FFFFFFFFFFFFFFFFFFFFFFFF11111111111111111111111111111111111111111111111111111111111111111111111148
:4061000011111111111111111111111100000000000000001F1F1F1F1F1F1F1F1F1F1F1F1F1F1F1F1F1F1F1F1F1F1F1F1F1F1F1F1F1F1F1F000000000000000000000000B3
:40614000000000000000000000000000FFFFFFFFFFFFFFFFFFFFFFFF1111111111111111111111111111111111111111111111111111111111111111111111111111111183
:40618000111111111111111100000000000000001F1F1F1F1F1F1F1F1F1F1F1F1F1F1F1F1F1F1F1F1F1F1F1F1F1F1F1F1F1F1F1F0000000000000000000000000000000077
:4061C0000000000000000000FFFFFFFFFFFFFFFFFFFFFFFF1111111111111111111111111111111111111111111111111111111111111111111111111111111111111111BF
:406200001111111100000000000000001F1F1F1F1F1F1F1F1F1F1F1F1F1F1F1F1F1F1F1F1F1F1F1F1F1F1F1F1F1F1F1F00000000000000000000000000000000000000003A
:4062400000000000FFFFFFFFFFFFFFFFFFFFFFFF111111111111111111111111111111111111111111111111111111111111111111111111111111111111111111111111FA
:4062800000000000000000001F1F1F1F1F1F1F1F1F1F1F1F1F1F1F1F1F1F1F1F1F1F1F1F1F1F1F1F1F1F1F1F000000000000000000000000000000000000000000000000FE
:4062C000FFFFFFFFFFFFFFFFFFFFFFFF11111111111111111111111111111111111111111111111111111111111111111111111111111111111111111111111147656E65FB
:4063000072617465645F536F757263655C50536F43365C70646C5C647269766572735C7065726970686572616C5C737973696E745C63795F737973696E742E63000000003F
:4063400047656E6572617465645F536F757263655C50536F43365C70646C5C647269766572735C7065726970686572616C5C6970635C63795F6970635F6472762E680000AC
:4063800047656E6572617465645F536F757263655C50536F43365C70646C5C647269766572735C7065726970686572616C5C6970635C63795F6970635F6472762E63000071
:4063C00047656E6572617465645F536F757263655C50536F43365C70646C5C647269766572735C7065726970686572616C5C6970635C63795F6970635F706970652E6300CF
:4064000047656E6572617465645F536F757263655C50536F43365C70646C5C647269766572735C7065726970686572616C5C737973636C6B5C63795F737973636C6B2E63E1
:406440000000000047656E6572617465645F536F757263655C50536F43365C70646C5C647269766572735C7065726970686572616C5C737973636C6B5C63795F7379736309
:406480006C6B2E680000000047656E6572617465645F536F757263655C50536F43365C70646C5C647269766572732F7065726970686572616C2F6970632F63795F697063C6
:4064C0005F6472762E68000047656E6572617465645F536F757263655C50536F43365C70646C5C647269766572735C7065726970686572616C5C6770696F5C63795F67701D
:40650000696F2E630000000047656E6572617465645F536F757263655C50536F43365C70646C5C647269766572735C7065726970686572616C5C6770696F5C63795F6770B4
:40654000696F2E680000000047656E6572617465645F536F757263655C50536F43365C70646C5C647269766572735C7065726970686572616C5C737973706D5C63795F7346
:406580007973706D2E63000047656E6572617465645F536F757263655C50536F43365C70646C5C647269766572735C7065726970686572616C5C747269676D75785C637918
:4065C0005F747269676D75782E63000047656E6572617465645F536F757263655C50536F43365C70646C5C647269766572735C7065726970686572616C5C70726F745C63F6
:40660000795F70726F742E63000000000000204000002440000000400000000000002340000030400000314000009F40000022400000104002020202020202020210101D04
:40664000800017007500FF030602063604102000000000007FC0000000040000000000000019324B647D00804000080B100000000000FF012002001F00800004FF08101803
:40668000001000140018001C4044484C50000000081000000800000004000000041000000012000004210000002100000016000040114002C41300138013A0132000000091
:4066C0001C0000000000214000002540000001400000344000002440000031400000324000001F410000234000001140010101010101010101101010800019005500F00091
:406700000501053B04101C01010000000FC000000004000001010101011D3A57789600082000101208000000001F00000010000F002000023F06080E00080009000A000B1A
:4067400024282C3034000000100000009000000088000000080000008000000004F0000000F00000400200002005A000D00100018001A0012000000010000000000000007E
:40678000000000000000000066666666000000000000FFFF000000001C1C1C1C1C1C1C1C00000000000000000000000066E6EE66000000000000FFFF000000001C1A1A1A5B
:4067C0001A1A000000000000000000000000000066E66666000000000000FFFF000000001A1A001C0000000047656E6572617465645F536F757263655C50536F43365C70ED
:40680000646C5C6D6964646C65776172655C626C655C63795F626C655F68616C5F7076742E6300007C010000310100000B0B01120C000000FF03000080ABCDABCD80409C25
:406840001B04041BFFFFFFFF000000000410080007070400F216FBE0FBE01F60427EF56D720196BE2090000010502604060037D7F401FA00960064004B0032001E001400A4
:4068800003040506020D1100290401108D030110930A0110F1040110A30501103F0A0110570A0110290B01101D060110CD060110010901102F090110770B01102D0A0110F2
:4068C0000B0B01100B0B01100B0B0110D50901107D090110C1090110014301100D430110F9520110E1530110ED530110ED04011027040110E70A0110A1050110DB05011032
:406900004F0A0110710A0110750B0110C9060110690701101B09011055090110E30B0110370A0110750B0110750B0110750B0110250A0110750B0110750B0110750B0110D4
:40694000750B0110750B0110750B0110750B01100C000800020017000D00010001000200090009000100010006000200090018001800030001000100090009000300030023
:40698000050000003F23011047230110432301103D2301101B2301101723011035230110332301100F230110132301104B23011037230110312301104F2301104F230110B3
:4069C0000D2301103B2301106D3A0110213E0110E53B011091390110752C0110212901100D340110512F011081240110E5240110513F0110B1370110E92E0110A128011057
:406A000099330110057F001061380110FD3F011091430110FD440110ED450110C94101104940011019430110294101106B4101107B4101107D410110814101100B0B011084
:406A40006D410110774101107541011025570110ED5001106D5601101D560110DD560110F9530110055301109D5301105154011055E80010B956011011510110055101108C
:406A80000B510110095101100F510110075101100B0B01100B0B01100B0B01108DD600100D510110C16A0110A36A0110A36A0110A36A0110DD6A011029A80110A36A0110DF
:406AC00019A8011031A8011021A80110636F01105B6F0110C56E0110BD6E0110B36A01109B6A0110916A0110B76A0110B56E0110E56E0110AB6A0110DD6E01103D6F011069
:406B0000A36A0110ED6E0110D56E0110CD6E0110A36A0110E56A0110ED6A0110F56A0110A76A0110A76A0110C16A0110A36A0110A36A0110A36A0110DD6A011029A80110C1
:406B4000A36A011019A8011031A8011021A80110636F01105B6F0110C56E0110BD6E0110B36A01109B6A0110916A0110B76A0110B56E0110E56E0110AB6A0110DD6E011087
:406B80003D6F0110A36A0110ED6E0110D56E0110CD6E0110A36A0110E56A0110ED6A0110F56A0110A76A0110A76A0110299101101D91011035910110A76A0110A76A0110AF
:406BC000E18E01101D8F0110ED8E0110118F0110058F0110F98E0110298F0110358F011011910110159301101993011025930110FD92011009930110A76A0110A76A0110BD
:406C0000A76A0110A76A0110A76A0110A76A0110A76A0110A76A0110A76A0110A76A0110A76A0110A76A0110A76A0110A76A0110A76A0110A76A0110A76A0110A76A011034
:406C4000A76A0110A76A0110A76A0110A76A0110A36A0110A76A0110A76A0110418F01109F8501104D8401104D8401104D840110D1850110618501104D8401104585011053
:406C8000118601105B850110EB850110E1850110CF8301104D8401104D8401104D840110538301102F85011079830110B1850110D7840110E7840110618401104D8401107A
:406CC000278601109D8401108F8401104D8401101B8501105F8601104D8401104D8401104D840110D9900110CD900110E5900110E58401107F8401102D8E0110698E011081
:406D0000398E01105D8E0110518E0110458E0110758E0110818E0110C1900110B5920110C1920110CD9201109D920110A99201104D8401104D8401104D8401104D840110D5
:406D40004D8401104D8401104D8401104D8401104D8401104D8401104D8401104D8401104D8401104D8401104D8401104D8401104D8401104D8401104D8401104D840110F3
:406D80004D8401104D8401104D8401104D8401104D8401108D8E0110CF880110FD870110FD870110FD870110F388011079880110FD870110C1880110C18801106B8801102B
:406DC00009890110F78801107987011075870110598801100D870110FF860110FF86011011870110D38801102D8801104188011001880110FD8701103D8901101988011012
:406E000005880110FD8701105D8801105989011055890110FD870110FD87011031900110259001103D90011081890110FB860110758D01107D8D0110898D0110958D011072
:406E40007D8D01107D8D0110A18D0110AD8D011019900110BD910110C9910110D5910110A5910110B1910110FD870110FD870110FD870110FD870110FD870110FD8701103F
:406E8000FD870110FD870110FD870110FD870110FD870110FD870110FD870110FD870110FD870110FD870110FD870110FD870110FD870110FD870110FD870110FD87011082
:406EC000FD870110FD870110FD870110B98D011008000000060F0020200107021900000007070E05020220001C1202000103000E03060004004027070000070701020002E7
:406F000003070304000000000000000000000000000000000000000000000000000800009F8501104D8401104D8401104D840110D1850110618501104D8401104585011042
:406F4000118601105B850110EB850110E1850110CF8301104D8401104D8401104D840110538301102F85011079830110B1850110D7840110E7840110618401104D840110B7
:406F8000278601109D8401108F8401104D8401101B8501105F8601104D8401104D8401104D840110CF880110FD870110FD870110FD870110F388011079880110FD87011034
:406FC000C1880110C18801106B88011009890110F78801107987011075870110598801100D870110FF860110FF86011011870110D38801102D880110418801100188011076
:40700000FD8701103D8901101988011005880110FD8701105D8801105989011055890110FD870110FD87011008000000060F0020200107021900000007070E050202200038
:407040001C1202000103000E032000800000C000000000040000002822000000000000040000F7FFFF7F0000003000000000008000000000000000000000000000000000F5
:407080000000000000000000000000000D8C0110C58D01102D8D01106D8C0110D38D0110558D01103D8C0110E18D0110398D01106B8C0110E58D0110518D0110558C0110EE
:4070C000D38D0110498D01103F8C0110D38D0110418D0110838C0110F18D01105D8D0110898C0110018E0110658D01104D840110FD870110A76A01104D840110FD87011089
:40710000A76A01104D840110FD870110A76A01104D840110FD870110A76A01104D840110FD870110A76A01104D840110FD870110A76A01104D840110FD870110A76A011030
:407140004D840110FD870110A76A0110978C0110198E01106D8D01104D840110FD870110A76A01104D840110FD870110A76A01104D840110FD870110A76A01104D840110D2
:40718000FD870110A76A01104D840110FD870110A76A0110518F011061900110079001104F8F011055900110FF8F0110778F0110999001100F9001104D8F01104990011088
:4071C000F78F01104D840110FD870110A76A01104D840110FD870110A76A01104D840110FD870110A76A01104D840110FD870110A76A01104D840110FD870110A76A0110FB
:40720000619101101D920110000000006F91011031920110295501107D9101105B9201105955011041910110E1910110ED5101104F910110FF9101100952011030303031C7
